:100000000C9492050C94C3050C94C3050C94C30581
:100010000C94C3050C94C3050C94C3050C94C30540
:100020000C94C3050C94C3050C94C3050C94C30530
:100030000C94C3050C94C3050C94C3050C94C30520
:100040000C94C3050C94C3050C94C3050C94C30510
:100050000C94C3050C94C3050C94C3050C945A2D41
:100060000C94C3050C9410240C94E6230C94C30543
:100070000C94C3050C94C3050C94C3050C94C305E0
:100080000C94C3050C94C3050C94C3050C94C305D0
:100090000C94C3050C94C3050C94C3050C94C305C0
:1000A0000C94C3050C94C3050C94C3050C94C305B0
:1000B0000C94C3050C94C3050C94C3050C94C305A0
:1000C0000C94C3050C94C3050C94C3050C94C30590
:1000D0000C94C3050C94C3050C94C3050C94C30580
:1000E0000C94C3058A2B8D2B7C2B802B842BC42B4B
:1000F000912B952B9B2B9F2BA32BA92BAD2BB12B9E
:10010000C42BB72BBB2BBF2B0C94AE1F0C949D2084
:100110000C94B12B0C94C42B0C94CE200C9469221B
:100120000C947C2B0C94842B0C94B72B0C94912B5B
:100130000C9497350C945F070C94A32B0C94BC1F64
:100140000C94A5200C94671A0C94A92B0C94D02025
:100150000C9441200C94952B0C9449270C943D272A
:100160000C9446240C94F41F0C948B1F0C9448247C
:100170000C949A1F0C94D2200C9447240C948A2B34
:100180000C94E91D0C9450210C94AD2B0C94802BF5
:100190000C949C200C94A1200C94E3210C94BB2B78
:1001A0000C949F2B0C948D2B0C94BF2B0C949B2B9D
:1001B0000C945D1F11007F78B103053C3CB2030530
:1001C0003C3CB306053C3C053C3CB40103C0032861
:1001D0000804C101C0C2020D00C3028D2AC4028DF1
:1001E000EEC5011AE0100322070A2E30252A282620
:1001F0002E3A00010313E1100416060D2D262327C5
:1002000027252D3B000104133A01057F9629001193
:10021000007F14D003074218D103000710D2020157
:1002200002C005103B000211C50103C80C003236A4
:10023000450616377577540C0036010A3A01552ADF
:10024000040000013F2B04000001E07F782900F743
:1002500004A9512C82C0021109C10141C503000A41
:1002600080B102B011B40102B6020222B701C6BECB
:10027000020004E901003601083A0155E00F0007C9
:100280001009170B41894B0A0C0E181B0FE10F00C8
:10029000171A040E062F4543020A0932360F1100C1
:1002A0007F782900F1063604003C0F8FF20918A36D
:1002B0001202B212FF1000F8022104F902000836FF
:1002C0000108B40100C10141C50400918000E00FA4
:1002D0000F1F1C0C0F084898370A1304110D00E17A
:1002E0000F0F322E0B0D0547753706100324200023
:1002F0003A015511003601287F7829002E018929FD
:10030000018F2B0102E20100E40101E50110E60189
:1003100001E70110E80170F20100EA0100EB0120A1
:10032000EC013CED01C8E90138F101011B011A1A89
:10033000010124016125015C23018818013619019E
:10034000011F01887F051F01807F051F01907F0528
:100350001F01D47F051701053601002801387F28C9
:1003600028013C0201000301000401000501EF0621
:10037000010007010008010109013F0100B903FF65
:1003800083577FFAB30400000606B60125B0016862
:10039000CC0105B10600151C1C83AAC006505001F3
:1003A0003C1E08B4070240002A2A0D783A0155364F
:1003B00001C03501004402000211007F9629007F30
:1003C0003201007F322800F603010100CF030081D3
:1003D00030ED0464031281E803851078CB05392CD5
:1003E000003402F70120EA020000B00100B401006D
:1003F000C00121C10111C5023F3CC701B5360188CA
:100400003A0155B102001B360148F20100260101F4
:10041000E00F0F26240B0E0954A8460C17090F07EE
:1004200000E10F00191B0410072A473903060630A4
:10043000380FB7010711007F96290000000100FF67
:10044000FF32000100000102000007030030100429
:1004500000000008000202090000000A0000000C71
:100460000000000D0000000F00000010000000114F
:100470000007001200000013000000FFFFC800107A
:1004800000901611002702FFFF320012001A00FF31
:10049000FF32001300001829002A00FFFF3200304D
:1004A0000000003100000032000000350006023676
:1004B0000008083700070038000102390000003C3E
:1004C0000000003D0000002000000021000000505E
:1004D0000000005100EF005200000053003F016097
:1004E0000000A7610003006A000000900010009265
:1004F0000000009300030095000011970000009891
:100500000000000700330100000000003E5B4F5B6D
:100510003E3E6B4F6B3E1C3E7C3E1C183C7E3C18A6
:100520001C577D571C1C5E7F5E1C00183C1800FF8A
:10053000E7C3E7FF0018241800FFE7DBE7FF3048B8
:100540003A060E2629792926407F050507407F05B2
:10055000253F5A3CE73C5A7F3E1C1C08081C1C3EA9
:100560007F14227F22145F5F005F5F06097F017F97
:10057000006689956A606060606094A2FFA294083A
:10058000047E040810207E201008082A1C08081C7D
:100590002A08081E101010100C1E0C1E0C30383EBD
:1005A0003830060E3E0E06000000000000005F001E
:1005B000000007000700147F147F14242A7F2A12EA
:1005C00023130864623649562050000807030000D0
:1005D0001C2241000041221C002A1C7F1C2A080802
:1005E0003E08080080703000080808080800006015
:1005F000600020100804023E5149453E00427F4001
:100600000072494949462141494D331814127F105F
:1006100027454545393C4A494931412111090736A9
:1006200049494936464949291E0000140000004046
:100630003400000008142241141414141400412240
:10064000140802015909063E415D594E7C121112EF
:100650007C7F494949363E414141227F4141413EEB
:100660007F494949417F090909013E414151737F51
:100670000808087F00417F41002040413F017F087A
:100680001422417F404040407F021C027F7F0408CB
:10069000107F3E4141413E7F090909063E415121FB
:1006A0005E7F09192946264949493203017F010322
:1006B0003F4040403F1F2040201F3F4038403F63A5
:1006C0001408146303047804036159494D43007FFF
:1006D0004141410204081020004141417F040201D0
:1006E0000204404040404000030708002054547872
:1006F000407F284444383844444428384444287FC0
:10070000385454541800087E090218A4A49C787F19
:100710000804047800447D40002040403D007F10E4
:1007200028440000417F40007C047804787C080461
:1007300004783844444438FC182424181824241815
:10074000FC7C08040408485454542404043F442402
:100750003C4040207C1C2040201C3C4030403C441D
:10076000281028444C9090907C4464544C440008D9
:100770003641000000770000004136080002010207
:1007800004023C2623263C1EA1A161123A404020CF
:100790007A3854545559215555794121545478414A
:1007A000215554784020545579400C1E527212390C
:1007B00055555559395454545939555454580000C5
:1007C000457C410002457D420001457C40F02924E2
:1007D00029F0F0282528F07C545545002054547CFD
:1007E000547C0A097F4932494949323248484832E3
:1007F000324A4848303A4141217A3A424020780012
:100800009DA0A07D39444444393D4040403D3C24B6
:10081000FF2424487E4943662B2FFC2F2BFF0929F8
:10082000F620C0887E090320545479410000447D9D
:10083000413048484A32384040227A007A0A0A72E7
:100840007D0D19317D2629292F2826292929263091
:10085000484D4020380808080808080808382F10B4
:10086000C8ACBA2F102834FA00007B000008142A04
:10087000142222142A1408AA005500AAAA55AA551F
:10088000AA000000FF00101010FF00141414FF0055
:100890001010FF00FF1010F010F0141414FC0014DE
:1008A00014F700FF0000FF00FF1414F404FC1414FC
:1008B00017101F10101F101F1414141F00101010F9
:1008C000F0000000001F101010101F10101010F08A
:1008D00010000000FF101010101010101010FF106A
:1008E000000000FF140000FF00FF00001F101700B1
:1008F00000FC04F414141710171414F404F400008A
:10090000FF00F714141414141414F700F71414143B
:10091000171410101F101F141414F4141010F010DA
:10092000F000001F101F0000001F14000000FC1446
:100930000000F010F01010FF10FF141414FF14103A
:1009400010101F00000000F010FFFFFFFFFFF0F08D
:10095000F0F0F0FFFFFF0000000000FFFF0F0F0F9F
:100960000F0F38444438447C2A2A3E147E02020683
:1009700006027E027E0263554941633844443C04CA
:10098000407E201E2006027E020299A5E7A5991C42
:100990002A492A1C4C7201724C304A4D4D30304865
:1009A000784830BC625A463D3E494949007E0101C3
:1009B000017E2A2A2A2A2A44445F444440514A4458
:1009C0004040444A51400000FF0103E080FF000026
:1009D00008086B6B083612362436060F090F06001E
:1009E0000018180000001010003040FF0101001F27
:1009F00001011E00191D1712003C3C3C3C00000088
:100A0000000000002200250028002B002E003100ED
:100A1000340002010000050108010B010505050570
:100A2000070508080808020202020A0A0808040466
:100A30000404010101010101010103030303030394
:100A40000303040707070C0C0C0C0C0C0C0C020223
:100A5000020206060606060606060B0B0B0B0B0B20
:100A60000B0B0102102020080810204010204080AD
:100A70000201020108040201010204081020408062
:100A800080402010080402018004020180402010F0
:100A90000804020108040201010204081020408039
:100AA00001020408102040800000210024002700DB
:100AB0002A002D003000330001010000040107016D
:100AC0000A0100000A0B02090C0D0E0807030401BD
:100AD0000000000000000000000000000000000016
:100AE00000000000000000000000000000001211E3
:100AF00010000000000000000000000000000000E6
:100B0000000000000000000000002000230026007C
:100B100029002C002F003200000100000301060113
:100B20000901973511241FBECFEFD1E2DEBFCDBF43
:100B300000E00CBF23E0A6EDB2E001C01D92AF3E85
:100B4000B207E1F712E0A0E0B2E0EAE3F7E700E085
:100B50000BBF02C007900D92A63DB107D9F715E073
:100B6000C2E9D5E000E006C021970109802FFE010F
:100B70000E944A38C139D10780E00807A9F70E94CE
:100B8000A42D0C949B3B0C9400001F93CF93DF93F8
:100B9000FC01A6A5B7A59C9182AD89238C93A0A941
:100BA000B1A99C9183AD89238C93809102018778B0
:100BB0008093020130910201872F9927DC01A07CEC
:100BC000BB27ED01B3E0D595C795BA95E1F7DC01F8
:100BD000A370BB27D5E0AA0FBB1FDA95E1F7AC2BBA
:100BE000A32BA09302013EB1377C3EB93EB1DC019C
:100BF000AC70BB27ED01CC0FDD1FCC0FDD1FDC017E
:100C0000A072BB27B595A795B595A795AC2BA32B3F
:100C1000AEB9A59834B380719927880F991F832B9B
:100C200084BBA2A9B3A99C9184AD89238C93A2A96A
:100C3000B3A99C9180AD892B8C9380910201877818
:100C40008093020130910201CB01807C9927DC0165
:100C500083E0B595A7958A95E1F7CB018370992735
:100C6000B5E0880F991FBA95E1F78A2B832B809303
:100C700002018EB1877C8EB93EB1CB018C70992771
:100C8000DC01AA0FBB1FAA0FBB1FCB0180729927E3
:100C900095958795959587958A2B832B8EB9A598E1
:100CA00034B3CB0180719927880F991F832B84BBA4
:100CB000A2A9B3A99C9184AD89238C93A2A9B3A9BD
:100CC0009C9180AD892B8C93A0A9B1A99C9187A9F7
:100CD000892B8C93DA014FEF420F12160CF0E5C00E
:100CE0008D919091020197789093020150910201A9
:100CF000282F207CC22FC695C695C695982F937035
:100D0000D0E29D9F900111242C2B252B20930201D2
:100D10009EB1977C9EB95EB1282F2C7014E0219F64
:100D2000E0011124982F9072292F30E035952795F6
:100D3000359527952C2B252B2EB9A59894B380712A
:100D4000880F892B84BBC2A9D3A9988184AD89233C
:100D50008883C2A9D3A9988180AD892B888341114A
:100D600002C0242FB8CF808D918D0197D1F76F5F8E
:100D70007F4FC0A9D1A9988183AD892388838091B1
:100D8000020187788093020150910201872F9927F1
:100D90009C01207C3327E90123E0D595C7952A954E
:100DA000E1F79C0123703327D5E0220F331FDA953A
:100DB000E1F72C2B252B209302012EB1277C2EB995
:100DC0005EB19C012C703327E901CC0FDD1FCC0FE5
:100DD000DD1F9C0120723327359527953595279582
:100DE0002C2B252B2EB9A59824B380719927880F19
:100DF000991F822B84BBC2A9D3A9988184AD892372
:100E00008883C2A9D3A9988180AD892B88838091DA
:100E1000020187788093020120910201CB01807C3E
:100E20009927EC0183E0D595C7958A95E1F7CB0129
:100E30008370992735E0880F991F3A95E1F78C2B3D
:100E4000822B809302018EB1877C8EB92EB1CB01AB
:100E50008C709927EC01CC0FDD1FCC0FDD1FCB016F
:100E60008072992795958795959587958C2B822BE0
:100E70008EB9A59824B3CB0180719927880F991F4B
:100E8000822B84BBC2A9D3A9988184AD892388838E
:100E9000C2A9D3A9988180AD892B8883C0A9D1A983
:100EA000988187A9892B88835CCFA6A5B7A59C913B
:100EB00086A9892B8C93DF91CF911F9108956F9212
:100EC0007F929F92AF92BF92CF92DF92EF92FF926A
:100ED0000F931F93CF93DF93CDB7DEB728970FB64D
:100EE000F894DEBF0FBECDBF7C01DC019E96ED9174
:100EF000FC919F979081DA968C91DA978923808371
:100F000058968D919C915997009709F0C0C65696B6
:100F10008D919C91579782309105A1F08330910576
:100F200049F10197C1F51E96ED91FC911F973197FC
:100F3000DF01A01BB10BCB01E41BF50B89019F0165
:100F4000AB0116C0F701868597850197DC01A21BCE
:100F5000B30B9C01261B370B808991890197BC013B
:100F6000601B710B8C01041B150BC801F901AB014F
:100F7000BD0113C0D70150968D919C915197019757
:100F8000DC01A21BB30B861B970BFA0198018C01A5
:100F9000BA01AD0102C0CA01FB01D701D096CD90C4
:100FA000DC90D197D601BC90D701DB96AC90BA20EB
:100FB000D601BC92A0910201A778A0930201A09152
:100FC0000201A0930201AEB1A77CAEB9AEB1AEB939
:100FD000A598A4B3A4BBD701D296CD90DC90D397AB
:100FE000D601BC90D701DC96AC90BA20D601BC9259
:100FF000D701D296CD90DC90D397D601BC90D70183
:10100000D896AC90BA28D601BC92A0910201A778DC
:10101000A0930201A0910201A860A0930201AEB1C9
:10102000A77CAEB9AEB1AEB9A598A59AD701D296B4
:10103000CD90DC90D397D601BC90D701DC96AC90D4
:10104000BA20D601BC92D701D296CD90DC90D3972E
:10105000D601BC90D701D896AC90BA28D601BC92E4
:10106000672E772467FC7A94D701D096AD90BC9018
:10107000D197D501CC90D701D796DC90DC28D5014B
:10108000DC92D0900201BD2DB778B0930201909010
:1010900002015301A0ECAA22BB24B3E0B594A794AB
:1010A000BA95E1F76301B3E0CB22DD24A5E0CC0CD7
:1010B000DD1CAA95E1F7DA2CDC28D928D0920201B0
:1010C000DEB0AD2DA77CAEB99EB05301BCE0AB2223
:1010D000BB24AA0CBB1CAA0CBB1C6301A0E2CA2245
:1010E000DD24D594C794D594C794DA2CDC28D9286C
:1010F000DEB8A598D4B2D301A071BB27AA0FBB1F3D
:10110000AD29A4BBD701D296CD90DC90D397D60160
:10111000BC90D701DC96AC90BA20D601BC92D70126
:10112000D296CD90DC90D397D601BC90D701D896BB
:10113000AC90BA28D601BC92A0910201A778A093E6
:101140000201B0900201DB01A07CBB276D01A3E08E
:10115000D594C794AA95E1F7DB01A370BB276894E7
:1011600014F8AA0FBB1F1694E1F7AC29AB29A09382
:101170000201AEB1A77CAEB9BEB0DB01AC70BB273B
:101180006D01CC0CDD1CCC0CDD1CDB01A072BB277F
:10119000B595A795B595A795AC29AB29AEB9A598F6
:1011A000A4B360717727660F771F6A2B64BBD701E2
:1011B000D296CD90DC90D397D6017C91D701DC9666
:1011C0006C916723D6016C93D701D296CD90DC90B9
:1011D000D397D6017C91D701D8966C91672BD60115
:1011E0006C93D701D096CD90DC90D197D6017C91AD
:1011F000D701DB966C916723D6016C936091020155
:1012000067786093020160910201609302016EB100
:10121000677C6EB96EB16EB9A59864B364BBD70133
:10122000D296CD90DC90D397D6017C91D701DC96F5
:101230006C916723D6016C93D701D296CD90DC9048
:10124000D397D6017C91D701D8966C91672BD601A4
:101250006C936091020167786093020160910201D2
:101260006862609302016EB1677C6EB96EB16EB94F
:10127000A598A59AD701D296CD90DC90D397D601A8
:101280007C91D701DC966C916723D6016C93D701D2
:10129000D296CD90DC90D397D6017C91D701D89689
:1012A0006C91672BD6016C93632F772767FD7A9536
:1012B000D701D096CD90DC90D197D601BC90D701C4
:1012C000D796AC90BA28D601BC92A0910201A7781B
:1012D000A0930201B0900201DB01A07CBB276D014D
:1012E000A3E0D594C794AA95E1F7DB01A370BB27CF
:1012F000689414F8AA0FBB1F1694E1F7AC29AB2928
:10130000A0930201AEB1A77CAEB9BEB0DB01AC7058
:10131000BB276D01CC0CDD1CCC0CDD1CDB01A072ED
:10132000BB27B595A795B595A795AC29AB29AEB9BF
:10133000A598A4B360717727660F771F6A2B64BBEB
:10134000D701D296CD90DC90D397D6017C91D7016E
:10135000DC966C916723D6016C93D701D296CD9021
:10136000DC90D397D6017C91D701D8966C91672BEE
:10137000D6016C9360910201677860930201A0919D
:101380000201B901607C77276B0163E0D594C794B3
:101390006A95E1F7B90163707727B5E0660F771FAB
:1013A000BA95E1F76C296A2B609302016EB1677CF4
:1013B0006EB9AEB1B9016C7077276B01CC0CDD1C36
:1013C000CC0CDD1CB9016072772775956795759512
:1013D00067956C296A2B6EB9A59864B32071332781
:1013E000220F331F262B24BBD701D2966D917C91FF
:1013F000D397DB013C91D701DC962C912323DB01B1
:101400002C93D701D2966D917C91D397DB013C91BF
:10141000D701D8962C91232BDB012C93D701D096A2
:101420006D917C91D197DB013C91D701DB962C919A
:101430002323DB012C9320910201277820930201C2
:1014400020910201209302012EB1277C2EB92EB1EA
:101450002EB9A59824B324BBD701D2966D917C9167
:10146000D397DB013C91D701DC962C912323DB0140
:101470002C93D701D2966D917C91D397DB013C914F
:10148000D701D8962C91232BDB012C9320910201BC
:101490002778209302012091020128642093020101
:1014A0002EB1277C2EB92EB12EB9A598A59AD701B9
:1014B000D2966D917C91D397DB013C91D701DC965C
:1014C0002C912323DB012C93D701D2966D917C9133
:1014D000D397DB013C91D701D8962C91232BDB01CC
:1014E0002C93252F332727FD3A95D701D096CD9001
:1014F000DC90D197D6017C91D701D7966C91672B60
:10150000D6016C9360910201677860930201A0910B
:101510000201B901607C77276B01B3E0D594C794D1
:10152000BA95E1F7B90163707727B5E0660F771FC9
:10153000BA95E1F76C296A2B609302016EB1677C62
:101540006EB9AEB1B9016C7077276B01CC0CDD1CA4
:10155000CC0CDD1CB9016072772775956795759580
:1015600067956C296A2B6EB9A59864B320713327EF
:10157000220F331F262B24BBD701D2966D917C916D
:10158000D397DB013C91D701DC962C912323DB011F
:101590002C93D701D2966D917C91D397DB013C912E
:1015A000D701D8962C91232BDB012C93209102019B
:1015B000277820930201609102019A01207C332751
:1015C000D90123E0B595A7952A95E1F79A012370F3
:1015D000332775E0220F331F7A95E1F72A2B262B4C
:1015E000209302012EB1277C2EB96EB19A012C7086
:1015F0003327D901AA0FBB1FAA0FBB1F9A01207264
:10160000332735952795359527952A2B262B2EB9E7
:10161000A59824B340715527440F551F422B44BB56
:10162000D701D2964D915C91D397DA013C91D701C5
:10163000DC962C912323DA012C93D701D2964D917D
:101640005C91D397DA013C91D701D8962C91232B4A
:10165000DA012C93D701D0964D915C91D197DA01A4
:101660003C91D701DB962C912323DA012C93209116
:1016700002012778209302012091020120930201A8
:101680002EB1277C2EB92EB12EB9A59824B324BB38
:10169000D701D2964D915C91D397DA013C91D70155
:1016A000DC962C912323DA012C93D701D2964D910D
:1016B0005C91D397DA013C91D701D8962C91232BDA
:1016C000DA012C93209102012778209302012091C6
:1016D00002012866209302012EB1277C2EB92EB17B
:1016E0002EB9A598A59AD701D2964D915C91D39722
:1016F000DA013C91D701DC962C912323DA012C935B
:10170000D701D2964D915C91D397DA013C91D701E4
:10171000D8962C91232BDA012C93212F332727FDE8
:101720003A95D701D0966D917C91D197DB015C9170
:10173000D701D7964C91452BDB014C934091020188
:1017400047784093020160910201A901407C55272E
:10175000DA0143E0B595A7954A95E1F7A9014370F1
:10176000552775E0440F551F7A95E1F74A2B462B14
:10177000409302014EB1477C4EB96EB1A9014C7045
:101780005527DA01AA0FBB1FAA0FBB1FA901407280
:10179000552755954795559547954A2B462B4EB954
:1017A000A59844B320713327220F331F242B24BB69
:1017B000D701D2964D915C91D397DA013C91D70134
:1017C000DC962C912323DA012C93D701D2964D91EC
:1017D0005C91D397DA013C91D701D8962C91232BB9
:1017E000DA012C9320910201277820930201409185
:1017F00002019801207C3327B901B3E07595679504
:10180000BA95E1F798012370332755E0220F331F73
:101810005A95E1F7262B242B209302012EB1277C29
:101820002EB94EB198012C703327B901660F771F7E
:10183000660F771F980120723327359527953595C8
:101840002795262B242B2EB9A59824B30071112798
:10185000000F111F022B04BBD701D2964D915C9152
:10186000D397DA013C91D701DC962C912323DA013E
:101870002C93D701D2964D915C91D397DA013C918C
:10188000D701D8962C91232BDA012C93D701D0962F
:101890004D915C91D197DA013C91D701DB962C9167
:1018A0002323DA012C93209102012778209302014F
:1018B00020910201209302012EB1277C2EB92EB176
:1018C0002EB9A59824B324BBD701D2964D915C9133
:1018D000D397DA013C91D701DC962C912323DA01CE
:1018E0002C93D701D2964D915C91D397DA013C911C
:1018F000D701D8962C91232BDA012C932091020149
:1019000027782093020120910201209302012EB139
:10191000277C2EB9739AA59824B324BBD701D296FD
:101920004D915C91D397DA013C91D701DC962C91D3
:101930002323DA012C93D701D2964D915C91D39752
:10194000DA013C91D701D8962C91232BDA012C9304
:101950002F2F332727FD3A95D701D0966D917C9193
:10196000D197DB015C91D701D7964C91452BDB01D8
:101970004C9340910201477840930201609102012B
:10198000A901407C5527DA0153E0B595A7955A95F2
:10199000E1F7A9014370552775E0440F551F7A956B
:1019A000E1F74A2B462B409302014EB1477C4EB9DA
:1019B0006EB1A9014C705527DA01AA0FBB1FAA0FFF
:1019C000BB1FA901407255275595479555954795D9
:1019D0004A2B462B4EB9A59844B320713327220FCA
:1019E000331F242B24BBD701D2964D915C91D39702
:1019F000DA013C91D701DC962C912323DA012C9358
:101A0000D701D2964D915C91D397DA013C91D701E1
:101A1000D8962C91232BDA012C9320910201277860
:101A200020930201409102019F01207C3327B901DC
:101A3000A3E075956795AA95E1F79F012370332779
:101A4000B5E0220F331FBA95E1F7262B242B209304
:101A500002012EB1277C2EB94EB19F012C70332785
:101A6000B901660F771F660F771F9F01207233271A
:101A70003595279535952795262B242B2EB9A59896
:101A800024B3E071FF27EE0FFF1FE22BE4BBD70169
:101A9000D296ED91FC91D3973081DC962C91DC9716
:101AA00023232083D296ED91FC91D3973081D89651
:101AB0002C91D897232B2083D096ED91FC91D19730
:101AC0003081DB962C91DB97232320832091020128
:101AD00027782093020120910201209302012EB168
:101AE000277C2EB92EB12EB9A59824B324BBD2964B
:101AF000ED91FC91D3973081DC962C91DC972323D8
:101B00002083D296ED91FC91D3973081D8962C9179
:101B1000D897232B2083209102012778209302015C
:101B2000209102012062209302012EB1277C2EB960
:101B3000739AA59824B324BBD296ED91FC91D397C8
:101B40003081DC962C91DC9723232083D296ED9173
:101B5000FC91D3973081D8962C91D897232B208352
:101B6000292F332727FD3A95D096ED91FC91D197F7
:101B70005081D7964C91D797452B408340910201D5
:101B800047784093020160910201A901407C5527EA
:101B9000FA0153E0F595E7955A95E1F7A9014370ED
:101BA000552775E0440F551F7A95E1F74E2B462BCC
:101BB000409302014EB1477C4EB96EB1A9014C7001
:101BC0005527FA01EE0FFF1FEE0FFF1FA90140720C
:101BD000552755954795559547954E2B462B4EB90C
:101BE000A59844B320713327220F331F242B24BB25
:101BF000D296ED91FC91D3973081DC962C91DC97B5
:101C000023232083D296ED91FC91D3973081D896EF
:101C10002C91D897232B20832091020127782093A1
:101C20000201409102019C01207C3327B901E3E0CD
:101C300075956795EA95E1F79C0123703327F5E0E8
:101C4000220F331FFA95E1F7262B242B2093020154
:101C50002EB1277C2EB94EB19C012C703327B901CF
:101C6000660F771F660F771F9C012072332735950B
:101C7000279535952795262B242B2EB9A59824B387
:101C800080719927880F991F822B84BB38C40197D4
:101C900009F049C4D701D096ED91FC91D19790817C
:101CA000DB968C91DB978923808380910201877872
:101CB00080930201809102018064809302018EB1C1
:101CC000877C8EB98EB18EB9A59884B384BBD29629
:101CD000ED91FC91D3979081DC968C91DC978923D0
:101CE0008083D296ED91FC91D3979081D8968C9178
:101CF000D897892B8083D096ED91FC91D1979081D4
:101D0000D7968C91892B808380910201877880936C
:101D10000201A0910201872F992787FD9A95FC0166
:101D2000E07CFF276F01E3E0D594C794EA95E1F7E3
:101D3000FC01E370FF27B5E0EE0FFF1FBA95E1F756
:101D4000EC29EA2BE0930201EEB1E77CEEB9AEB1EB
:101D5000FC01EC70FF276F01CC0CDD1CCC0CDD1CF2
:101D6000FC01E072FF27F595E795F595E795EC29DD
:101D7000EA2BEEB9A598E4B380719927880F991FD3
:101D80008E2B84BBD701D296ED91FC91D397908195
:101D9000DC968C91DC9789238083D296ED91FC911F
:101DA000D3979081D8968C91D897892B8083D096A1
:101DB000ED91FC91D1979081DB968C91DB978923F3
:101DC00080838091020187788093020180910201D3
:101DD0008066809302018EB1877C8EB98EB18EB9F8
:101DE000A59884B384BBD296ED91FC91D397908152
:101DF000DC968C91DC9789238083D296ED91FC91BF
:101E0000D3979081D8968C91D897892B8083D09640
:101E1000ED91FC91D1979081D7968C91892B8083FD
:101E200080910201877880930201E0910201CB0149
:101E3000807C9927DC0183E0B595A7958A95E1F729
:101E4000CB0183709927F5E0880F991FFA95E1F788
:101E50008A2B8E2B809302018EB1877C8EB9EEB1D6
:101E6000CB018C709927DC01AA0FBB1FAA0FBB1FE7
:101E7000CB018072992795958795959587958A2BA3
:101E80008E2B8EB9A59884B360717727660F771F64
:101E9000682B64BBD701D296ED91FC91D3979081CA
:101EA000DC968C91DC9789238083D296ED91FC910E
:101EB000D3979081D8968C91D897892B8083D09690
:101EC000ED91FC91D1979081DB968C91DB978923E2
:101ED00080838091020187788093020180910201C2
:101EE0008064809302018EB1877C8EB9749AA59824
:101EF00084B384BBD296ED91FC91D3979081DC960C
:101F00008C91DC9789238083D296ED91FC91D397B5
:101F10009081D8968C91D897892B8083D096ED911B
:101F2000FC91D1979081D7968C91892B8083809159
:101F30000201877880930201E0910201852F9927A1
:101F400087FD9A95BC01607C7727DB0163E0B5953E
:101F5000A7956A95E1F7BC0163707727F5E0660FF6
:101F6000771FFA95E1F76A2B6E2B609302016EB131
:101F7000677C6EB9EEB1BC016C707727DB01AA0FEC
:101F8000BB1FAA0FBB1FBC016072772775956795B1
:101F9000759567956A2B6E2B6EB9A59864B38071A1
:101FA0009927880F991F862B84BBD701D296ED9174
:101FB000FC91D3979081DC968C91DC978923808368
:101FC000D296ED91FC91D3979081D8968C91D89729
:101FD000892B8083D096ED91FC91D1979081DB96EF
:101FE0008C91DB978923808380910201877880938D
:101FF0000201809102018066809302018EB1877C8C
:102000008EB9749AA59884B384BBD296ED91FC9155
:10201000D3979081DC968C91DC9789238083D2962C
:10202000ED91FC91D3979081D8968C91D897892B7C
:102030008083D096ED91FC91D1979081D7968C9129
:10204000D797892B80838091020187788093020142
:1020500060910201CA01807C9927FC0183E0F5951B
:10206000E7958A95E1F7CA018370992775E0880F93
:10207000991F7A95E1F78E2B862B809302018EB102
:10208000877C8EB96EB1CA018C709927FC01EE0F66
:10209000FF1FEE0FFF1FCA01807299279595879544
:1020A000959587958E2B862B8EB9A59884B3407114
:1020B0005527440F551F482B44BBD296ED91FC91F8
:1020C000D3979081DC968C91DC9789238083D2967C
:1020D000ED91FC91D3979081D8968C91D897892BCC
:1020E0008083D096ED91FC91D1979081DB968C9175
:1020F000DB97892380838091020187788093020196
:1021000080910201809302018EB1877C8EB9749A0E
:10211000A59884B384BBD296ED91FC91D39790811E
:10212000DC968C91DC9789238083D296ED91FC918B
:10213000D3979081D8968C91D897892B8083D0960D
:10214000ED91FC91D1979081D7968C91D797892B5F
:10215000808380910201877880930201609102015F
:10216000832F992787FD9A95AC01407C5527FA016A
:1021700043E0F595E7954A95E1F7AC0143705527A3
:1021800075E0440F551F7A95E1F74E2B462B40938F
:1021900002014EB1477C4EB96EB1AC014C7055276F
:1021A000FA01EE0FFF1FEE0FFF1FAC014072552723
:1021B00055954795559547954E2B462B4EB9A59865
:1021C00044B380719927880F991F842B84BBD296C2
:1021D000ED91FC91D3979081DC968C91DC978923CB
:1021E0008083D296ED91FC91D3979081D8968C9173
:1021F000D897892B8083D096ED91FC91D1979081CF
:10220000DB968C91DB97892380838091020187780C
:1022100080930201809102018062809302018EB15D
:10222000877C8EB9749AA59884B384BBD296ED91BD
:10223000FC91D3979081DC968C91DC9789238083E5
:10224000D296ED91FC91D3979081D8968C91D897A6
:10225000892B8083D096ED91FC91D1979081D79670
:102260008C91D797892B8083809102018778809306
:10227000020140910201C901807C9927BC01F3E071
:1022800075956795FA95E1F7C9018370992755E02F
:10229000880F991F5A95E1F7862B842B80930201B2
:1022A0008EB1877C8EB94EB1C9018C709927BC0163
:1022B000660F771F660F771FC90180729927959562
:1022C000879595958795862B842B8EB9A59884B391
:1022D00020713327220F331F282B24BBD296ED9178
:1022E000FC91D3979081DC968C91DC978923808335
:1022F000D296ED91FC91D3979081D8968C91D897F6
:10230000892B8083D096ED91FC91D1979081DB96BB
:102310008C91DB9789238083809102018778809359
:10232000020180910201809302018EB1877C8EB9F7
:10233000759AA59884B384BBD296ED91FC91D397FE
:102340009081DC968C91DC9789238083D296ED91E5
:10235000FC91D3979081D8968C91D897892B8083C4
:10236000D096ED91FC91D1979081D7968C91D7978B
:10237000892B8083809102018778809302014091AC
:102380000201812F992787FD9A959C01207C332794
:10239000B90133E0759567953A95E1F79C01237093
:1023A000332755E0220F331F5A95E1F7262B242BB4
:1023B000209302012EB1277C2EB94EB19C012C70C6
:1023C0003327B901660F771F660F771F9C012072B4
:1023D00033273595279535952795262B242B2EB910
:1023E000A59824B380719927880F991F822B84BBED
:1023F000D296ED91FC91D3979081DC968C91DC97ED
:1024000089238083D296ED91FC91D3979081D896C1
:102410008C91D897892B8083D096ED91FC91D197A0
:102420009081DB968C91DB978923808380910201D8
:10243000877880930201809102018062809302017B
:102440008EB1877C8EB9759AA59884B384BBD296D9
:10245000ED91FC91D3979081DC968C91DC97892348
:102460008083D296ED91FC91D3979081D8968C91F0
:10247000D897892B8083D096ED91FC91D19790814C
:10248000D7968C91D797892B80838091020187788A
:102490008093020120910201C801807C9927AC0140
:1024A00063E0559547956A95E1F7C80183709927D0
:1024B00075E0880F991F7A95E1F7842B822B809322
:1024C00002018EB1877C8EB92EB1C8018C7099271C
:1024D000AC01440F551F440F551FC8018072992746
:1024E0009595879595958795842B822B8EB9A59880
:1024F00084B300711127000F111F082B04BBD29663
:10250000ED91FC91D3979081DC968C91DC97892397
:102510008083D296ED91FC91D3979081D8968C913F
:10252000892B80831EC07D836E833F8328875983D8
:102530004A831B830C83F701648D758D24E0AE0103
:102540004B5F5F4FC7010E94C505D7015E966D9135
:102550007C915F9724E0AE014F5F5F4FC7010E94FF
:10256000C505D7019E96ED91FC919F979081D696D7
:102570008C91892B808328960FB6F894DEBF0FBE0E
:10258000CDBFDF91CF911F910F91FF90EF90DF9022
:10259000CF90BF90AF909F907F906F900895DF9203
:1025A000EF92FF920F931F93CF93DF93162FE0913B
:1025B000AB03F091AC0330812091B7032323208338
:1025C000E091AD03F091AE0330812091B803232355
:1025D000208320910201277820930201609102015B
:1025E000292F3327A901407C5527FA01D3E0F5951F
:1025F000E795DA95E1F7A9014370552705E0440F07
:10260000551F0A95E1F74E2B462B409302014EB120
:10261000477C4EB96EB1A9014C705527FA01EE0FF7
:10262000FF1FEE0FFF1FA9014072552755954795D3
:10263000559547954E2B462B4EB9A59844B320711E
:102640003327220F331F242B24BBE091AF03F091DB
:10265000B00330812091B90323232083E091AF039D
:10266000F091B00330812091B503232B208320917A
:102670000201277820930201409102019C01207CF5
:102680003327B901F3E075956795FA95E1F79C0159
:1026900023703327A5E0220F331FAA95E1F7262BDD
:1026A000242B209302012EB1277C2EB94EB19C0120
:1026B0002C703327B901660F771F660F771F9C01B7
:1026C000207233273595279535952795262B242B72
:1026D0002EB9A59824B380719927880F991F822B52
:1026E00084BBE091AF03F091B00390818091B90376
:1026F00089238083E091AF03F091B00390818091B2
:10270000B503892B8083E091AD03F091AE039081F6
:102710008091B403892B8083809101018778809315
:1027200001018DB1877C8DB99D9861E070E080E0FA
:1027300090E00E94152CE091B103F091B2039081DA
:102740008091BA038923808300C000C000C00000CC
:10275000D0910001C09100018CB12CB132B3E09155
:10276000B103F091B20340819091B603942B908312
:10277000E091B103F091B20340819091BA039423A8
:10278000908300C000C000C0000000910001409193
:102790000001DCB06CB1A2B3E090B103F090B203E1
:1027A000F70150819091B603952B9083115017FF3C
:1027B000C2CFE090AB03F090AC03F7015081909151
:1027C000B303952B90839091010198679093010139
:1027D0009DB198639DB99D9A007610E095E015959E
:1027E00007959A95E1F7607370E075956795759513
:1027F0006795A072B0E0B595A7956A2B7B2BED2D60
:10280000E870F0E0EE0FFF1FEE0FFF1F6E2B7F2B27
:102810004871F8E04F9FA0011124462B572B402B05
:10282000512B2073922F969596953072232F30E07E
:1028300035952795292B982F9870990F990F922BE2
:102840002D2F2076229526952770292BC87188E098
:10285000C89FE00111242C2BCA01922BDF91CF914C
:102860001F910F91FF90EF90DF900895CF93DF932A
:1028700000D0CDB7DEB760E084E090E00E94CF12D8
:10288000892B41F461E084E090E00E94CF12811531
:102890009048F9F061E083ED90E00E94CF1281341E
:1028A00023E9920769F0863824E9920761F08838B5
:1028B000944961F060E080E090E00E94CF1227C070
:1028C00081E493E924C086E894E921C088E894E98A
:1028D0001EC08091060290910702A0910802898390
:1028E0009A83AB8323E0AE014F5F5F4F69EB70E0EB
:1028F0008DE793E00E94C50560E080ED90E00E94C6
:10290000CF1261E080ED90E00E94CF12C3CF0F9014
:102910000F900F90DF91CF9108950F931F93CF9356
:10292000DF9300D000D0CDB7DEB7E82FE370F0E042
:10293000F0939403E0939303282F217080FF05C048
:1029400080918D0390918E0304C080918B039091B0
:102950008C039093900380938F03222329F080911E
:102960008B0390918C0304C080918D0390918E0312
:102970009093920380939103E091AB03F091AC03A9
:1029800090818091B70389238083E0919503F09132
:1029900096038091930390919403A091AD03B0911D
:1029A000AE032091B803309709F000C1019783303E
:1029B000910540F4880F991FFC01E75FFD4F4081AE
:1029C000518102C040E350E18091A5039091A6039C
:1029D0003C9123232C93209102012778209302011C
:1029E000E0910201292F3327B901607C7727DB01B1
:1029F00073E0B595A7957A95E1F7B90163707727EC
:102A0000F5E0660F771FFA95E1F76A2B6E2B60935E
:102A100002016EB1677C6EB9EEB1B9016C707727B7
:102A2000DB01AA0FBB1FAA0FBB1FB901607277277A
:102A300075956795759567956A2B6E2B6EB9A598F8
:102A400064B320713327220F331F262B24BBE09160
:102A5000AF03F091B00330812091B9032323208389
:102A6000E091AF03F091B00330812091B503232BA7
:102A700020832091020127782093020160910201B6
:102A80009C01207C3327F901A3E0F595E795AA95F1
:102A9000E1F79C0123703327B5E0220F331FBA956D
:102AA000E1F72E2B262B209302012EB1277C2EB985
:102AB0006EB19C012C703327F901EE0FFF1FEE0F52
:102AC000FF1F9C0120723327359527953595279553
:102AD0002E2B262B2EB9A59824B380719927880F09
:102AE000991F822B84BBE091AF03F091B0039081DA
:102AF0008091B90389238083E091AF03F091B00303
:102B000090818091B503892B8083E091AD03F09192
:102B1000AE0390818091B403892B80838091020160
:102B200087788093020180910201809302018EB127
:102B3000877C8EB98EB18EB9A598A59AE091AF0326
:102B4000F091B00390818091B90389238083E09153
:102B5000AF03F091B00390818091B503892B8083FE
:102B60008091020187788093020180910201809315
:102B700002018EB1877C8EB92EB1CA018C70992763
:102B8000BC01660F771F660F771FCA0180729927F5
:102B90009595879595958795862B822B8EB9A598C7
:102BA00084B340715527440F551FB4C2E630F10578
:102BB00009F087C08130910551F038F082309105DD
:102BC00041F0039739F470E605C070ED03C070EA78
:102BD00001C070E08C9128232C93809102018778AA
:102BE00080930201409102018091A5039091A60378
:102BF0009C01207C332713E0369527951A95E1F741
:102C0000382F33703295330F307E232B242B2093B3
:102C100002012EB1277C2EB92EB1382F3C70330F14
:102C2000330F807299279695879596958795832B74
:102C3000822B8EB9A59894B38091A5038071880FDB
:102C4000892B84BBE091AF03F091B0039081809118
:102C5000B90389238083E091AF03F091B0039081A1
:102C60008091B503892B8083E091AD03F091AE0391
:102C700090818091B403892B8083809102018778B1
:102C80008093020190910201872F807C8695869522
:102C90008695892B809302018EB1877C8EB92EB1E7
:102CA000972F9072892F90E09595879595958795A8
:102CB000822B8EB9A59884B37071770F782B74BB73
:102CC0002BC2E830F10509F086C08130910551F042
:102CD00038F08230910541F0039739F438E205C0AD
:102CE00039E003C03BE201C03AE08C9128232C93E9
:102CF00080910201877880930201209102018091E6
:102D0000A5039091A603AC01407C5527F3E05695AE
:102D10004795FA95E1F7582F53705295550F507E0D
:102D2000452B422B409302012EB1277C2EB92EB1A8
:102D3000482F4C70440F440F8072992796958795C1
:102D400096958795842B822B8EB9A59894B3809104
:102D5000A5038071880F892B84BBE091AF03F091AC
:102D6000B00390818091B90389238083E091AF0300
:102D7000F091B00390818091B503892B8083E0911D
:102D8000AD03F091AE0390818091B403892B8083D1
:102D90008091020187788093020120910201932F94
:102DA000937040E2949FC0011124822B8093020112
:102DB0008EB1877C8EB92EB13072832F90E09595BD
:102DC000879595958795922F9062892B8EB9A598B6
:102DD00084B384BBA1C1E530F10509F089C081301D
:102DE000910551F038F08230910541F0039739F4A4
:102DF00068EE05C068E403C068E301C068E88C9130
:102E000028232C93809102018778809302014091BE
:102E100002018091A5039091A6039C01207C332799
:102E200053E0369527955A95E1F7382F3370329550
:102E3000330F307E232B242B209302012EB1277CCD
:102E40002EB92EB1382F3C70330F330F8072992773
:102E50009695879596958795832B822B8EB9A59805
:102E600094B38091A5038071880F892B84BBE09176
:102E7000AF03F091B00390818091B90389238083DF
:102E8000E091AF03F091B00390818091B503892B5D
:102E90008083E091AD03F091AE0390818091B40303
:102EA000892B808380910201877880930201909121
:102EB0000201862F807C869586958695892B809346
:102EC00002018EB1877C8EB92EB1962F9072892F18
:102ED00090E09595879595958795922F9062892B8F
:102EE0008EB9A59884B36071660F682B64BB14C15A
:102EF000379709F089C08130910551F038F0823060
:102F0000910541F0039739F458E705C058EC03C028
:102F100058EA01C058E18C9128232C93809102013A
:102F2000877880930201409102018091A5039091DE
:102F3000A6039C01207C332713E0369527951A952C
:102F4000E1F7382F33703295330F307E232B242B4B
:102F5000209302012EB1277C2EB92EB1382F3C7060
:102F6000330F330F8072992796958795969587959D
:102F7000832B822B8EB9A59894B38091A503807181
:102F8000880F892B84BBE091AF03F091B00390814F
:102F90008091B90389238083E091AF03F091B0035E
:102FA00090818091B503892B8083E091AD03F091EE
:102FB000AE0390818091B403892B808380910201BC
:102FC00087788093020190910201852F807C8695FD
:102FD00086958695892B809302018EB1877C8EB968
:102FE0002EB1952F9072892F90E0959587959595A4
:102FF0008795922F9062892B8EB9A59884B35071D2
:10300000550F582B54BB88C08130910551F038F0D2
:103010008230910541F0039739F448EF05C048E448
:1030200003C048E201C048E98C9128232C93809189
:103030000201877880930201509102018091A503DB
:103040009091A6039C01207C3327F3E036952795C9
:10305000FA95E1F7382F33703295330F307E232BFA
:10306000252B209302012EB1277C2EB92EB1382FAB
:103070003C70330F330F80729927969587959695FC
:103080008795832B822B8EB9A59894B38091A50345
:103090008071880F892B84BBE091AF03F091B0035E
:1030A00090818091B90389238083E091AF03F091EF
:1030B000B00390818091B503892B8083E091AD03AB
:1030C000F091AE0390818091B403892B808380912D
:1030D000020187788093020190910201842F807C05
:1030E000869586958695892B809302018EB1877C83
:1030F0008EB92EB1942F9072892F90E09595879577
:1031000095958795922F9062892B8EB9A59884B357
:103110004071440F482B44BBE091AF03F091B003E2
:1031200090818091B90389238083E091AF03F0916E
:10313000B00390818091B503892B80830091910326
:10314000109192030150110920918F033091900347
:103150002150310940E050E060E070E08DE793E0FD
:103160000E945F078091950390919603892B09F047
:10317000F8C0E091AD03F091AE0390818091B80367
:103180008923808380910201877880930201409196
:1031900002018091A1039091A2039C01207C33271E
:1031A00053E0369527955A95E1F7382F33703295CD
:1031B000330F307E232B242B209302012EB1277C4A
:1031C0002EB92EB1382F3C70330F330F80729927F0
:1031D0009695879596958795832B822B8EB9A59882
:1031E00094B38091A1038071880F892B84BBE091F7
:1031F000AF03F091B00390818091B903892380835C
:10320000E091AF03F091B00390818091B503892BD9
:103210008083E091AD03F091AE0390818091B4037F
:10322000892B8083809102018778809302018091AD
:1032300002018066809302018EB1877C8EB9739AF9
:10324000A598A29AE091AF03F091B003908180918C
:10325000B90389238083E091AF03F091B00390819B
:103260008091B503892B8083E091AD03F091AE038B
:1032700090818091B80389238083809102018778AF
:1032800080930201409102018091A3039091A403D5
:103290009C01207C332773E0369527957A95E1F7DA
:1032A000382F33703295330F307E232B242B20930D
:1032B00002012EB1277C2EB92EB1382F3C70330F6E
:1032C000330F807299279695879596958795832BCE
:1032D000822B8EB9A59894B38091A3038071880F37
:1032E000892B84BBE091AF03F091B0039081809172
:1032F000B90389238083E091AF03F091B0039081FB
:103300008091B503892B8083E091AD03F091AE03EA
:1033100090818091B403892B80838091020187780A
:103320008093020180910201809302018EB1877C1B
:103330008EB98EB18EB9A59884B384BBE091AF03EA
:10334000F091B00390818091B90389238083E0914B
:10335000AF03F091B00390818091B503892B8083F6
:103360003BC080918D0390918E0319821A829B83BA
:103370008C831D821E826091A1037091A20326E0BE
:10338000AE014F5F5F4F8DE793E00E94C505198244
:103390001A826091A3037091A40322E0AE014F5FF3
:1033A0005F4F8DE793E00E94C50580919503909152
:1033B0009603019741F4198221E0AE014F5F5F4F00
:1033C00061E070E005C020E040E050E063E170E0C3
:1033D0008DE793E00E94C505E091AB03F091AC034B
:1033E00090818091B303892B808326960FB6F89441
:1033F000DEBF0FBECDBFDF91CF911F910F9108951A
:10340000DF92EF92FF920F931F93CF93DF93CDB78D
:10341000DEB768970FB6F894DEBF0FBECDBF8C0144
:103420007B011E141F046CF5F80184913196D49031
:103430000E5F1F4F8F3741F46D2D70E080E090E0FC
:103440000E94152CD12C16C0202FDE011196F801F8
:10345000AD019E2F921B9D1520F494919D93319662
:10346000F8CF0D0D111D682F70E02D2D8DE793E025
:103470000E94C5056D2D70E06E5F7F4FE61AF70A5A
:10348000D0CF68960FB6F894DEBF0FBECDBFDF91E8
:10349000CF911F910F91FF90EF90DF900895FC0165
:1034A000808191810C94093ACF93DF93EC01FB0169
:1034B00044815581608171810E942623811103C05E
:1034C000CE010E945423CE01DF91CF9108954F92F7
:1034D0005F926F927F928F929F92AF92BF92CF92A4
:1034E000DF92EF92FF920F931F93CF93DF93EC0144
:1034F0005A0137FF05C0620F731F319521953109BD
:103500006B01C20ED31E4B0177FF02C0812C912CA0
:10351000E881F9810684F785E02DCE0119958C1597
:103520009D0544F4E881F9810684F785E02DCE01FC
:1035300019956C0126014818590817FF05C0A00EFF
:10354000B11E1195019511090A0D1B1DB7FE02C090
:10355000A12CB12CE881F9810484F585E02DCE0100
:1035600019958017910744F4E881F9810484F58561
:10357000E02DCE0119958C0138016A187B080150A5
:103580001109960121503109E881F9810680F781FE
:10359000E02DA501B401CE011995EEA5FFA59081FE
:1035A0008AAD89238083888D998D892B49F5E8A977
:1035B000F9A990818BAD892380838091020187785E
:1035C0008093020180910201809302018EB1877C79
:1035D0008EB98EB18EB9A59884B384BBEAA9FBA934
:1035E00090818CAD89238083EAA9FBA9908188AD65
:1035F000892B8083E8A9F9A990818FA9892B8083E1
:10360000E8A9F9A990818BAD89238083809102017B
:103610008778809302014091020188A199A19C01C1
:10362000207C332793E0369527959A95E1F78370B0
:103630008295880F807E822B842B809302018EB12D
:10364000877C8EB92EB188A199A1382F3C70330F99
:10365000330F807299279695879596958795832B3A
:10366000822B8EB9A59894B388A18071880F892B7D
:1036700084BBEAA9FBA990818CAD89238083EAA948
:10368000FBA9908188AD892B8083E8A9F9A9908155
:103690008FA9892B8083461457042CF4942D852DF3
:1036A0002301692E782E8F2D99279C01207C3327AA
:1036B000A90163E0559547956A95E1F79C01237050
:1036C000332775E0220F331F7A95E1F7242BBC01D5
:1036D0006C707727660F771F660F771FAC014072FB
:1036E00055275595479555954795362F342B80711D
:1036F0009927880FB701607C7727A3E075956795B8
:10370000AA95E1F7A70143705527B5E0440F551F6F
:10371000BA95E1F7962F942BA7014C705527BA0163
:10372000660F771F660F771FA701407255275595C3
:10373000479555954795462B50E1E522FF24EE0C21
:10374000161417040CF049C0B201509102015778C9
:103750005093020150910201522B509302015EB12D
:10376000577C5EB95EB1532B5EB9A59854B3582B04
:1037700054BBEAA9FBA9A0815CAD5A235083EAA9F6
:10378000FBA9A08158AD5A2B508350910201577864
:103790005093020150910201592B509302015EB1E6
:1037A000577C5EB95EB1542B5EB9A59854B35E29BF
:1037B00054BBEAA9FBA9A0815CAD5A235083EAA9B6
:1037C000FBA9A08158AD5A2B50836150710909F0B3
:1037D000BCCF51E0651A7108B3CF888D998D0097E1
:1037E000A1F40C891D89015011092A893B892150B6
:1037F0003109E881F9810680F781E02D40E050E051
:1038000060E070E0CE011995CDC1019709F0CAC101
:10381000EEA5FFA590818AAD89238083E8A9F9A947
:1038200090818BAD8923808380910201877880937A
:10383000020180910201809302018EB1877C8EB9D2
:10384000749AA59884B384BBEAA9FBA990818CAD36
:1038500089238083EAA9FBA9908188AD892B808385
:10386000E8A9F9A990818FA9892B80838091020111
:10387000877880930201409102018A899B89019790
:10388000892F99279C01207C332753E03695279573
:103890005A95E1F783708295880F807E822B842B66
:1038A000809302018EB1877C8EB92EB18A899B8963
:1038B0000197892F9927382F3C70330F330F80726F
:1038C00099279695879596958795832B822B8EB908
:1038D000A59894B32A893B8921503109832F80719F
:1038E000880F892B84BBEAA9FBA990818CAD892321
:1038F0008083EAA9FBA9908188AD892B8083E8A900
:10390000F9A990818BAD892380838091020187780A
:1039100080930201809102018062809302018EB146
:10392000877C8EB9749AA59884B384BBEAA9FBA955
:1039300090818CAD89238083EAA9FBA9908188AD11
:10394000892B8083E8A9F9A990818FA9892B80838D
:1039500080910201877880930201409102018A8957
:103960009B899C0121503109207C3327E3E0369567
:103970002795EA95E1F7815083708295880F807EC4
:10398000822B842B809302018EB1877C8EB93EB14D
:103990008A899B892FEF280F2C70220F220F019705
:1039A000807299279695879596958795822B832B7C
:1039B0008EB9A59894B38A8981508071880F892B1C
:1039C00084BBEAA9FBA990818CAD89238083EAA9F5
:1039D000FBA9908188AD892B8083E8A9F9A9908102
:1039E0008BAD8923808380910201877880930201C7
:1039F00080910201809302018EB1877C8EB9759A05
:103A0000A59884B384BBEAA9FBA990818CAD8923D6
:103A10008083EAA9FBA9908188AD892B8083E8A9DE
:103A2000F9A990818FA9892B8083809102018778E1
:103A300080930201409102018C899D890197892F11
:103A400099279C01207C3327B3E036952795BA95BA
:103A5000E1F783708295880F807E822B842B809380
:103A600002018EB1877C8EB92EB18C899D89019718
:103A7000892F9927382F3C70330F330F8072992785
:103A80009695879596958795832B822B8EB9A598C9
:103A900094B32C893D8921503109832F8071880F7F
:103AA000892B84BBEAA9FBA990818CAD89238083F3
:103AB000EAA9FBA9908188AD892B8083E8A9F9A99F
:103AC00090818BAD892380838091020187788093D8
:103AD0000201809102018062809302018EB1877C95
:103AE0008EB9759AA59884B384BBEAA9FBA9908185
:103AF0008CAD89238083EAA9FBA9908188AD892BAD
:103B00008083E8A9F9A990818FA9892B808380916E
:103B10000201877880930201409102018C899D897E
:103B20009C0121503109207C332793E0369527955D
:103B30009A95E1F7815083708295880F807E822B61
:103B4000842B809302018EB1877C8EB93EB18C8923
:103B50009D892FEF280F2C70220F220F0197807262
:103B600099279695879596958795822B832B8EB965
:103B7000A59894B38C8981508071880F892B84BB60
:103B8000EAA9FBA990818CAD89238083EAA9FBA9CE
:103B9000908188AD892B8083EEA5FFA590818EA9A9
:103BA000892B8083EEA5FFA590818EA9892B808328
:103BB000DF91CF911F910F91FF90EF90DF90CF9009
:103BC000BF90AF909F908F907F906F905F904F903D
:103BD0000895AF92BF92CF92DF92EF92FF920F9330
:103BE0001F93CF93DF9377FD5DC157FD5BC17901D3
:103BF0005A016B01EC01E881F9810684F785E02D1B
:103C000019958C159D050CF44DC1E881F98104844A
:103C1000F585E02DCE0119958A159B050CF442C15E
:103C2000E881F9810680F781E02D85019601A501E3
:103C3000B601CE011995EEA5FFA590818AAD892325
:103C4000808388A199A1E8A9F9A930812BAD23230C
:103C500020832091020127782093020160910201C4
:103C6000292F3327A901407C5527FA0143E0F59518
:103C7000E7954A95E1F7A9014370552775E0440F90
:103C8000551F7A95E1F74E2B462B409302014EB11A
:103C9000477C4EB96EB1A9014C705527FA01EE0F61
:103CA000FF1FEE0FFF1FA90140725527559547953D
:103CB000559547954E2B462B4EB9A59844B3207188
:103CC0003327220F331F242B24BBEAA9FBA9308101
:103CD0002CAD23232083EAA9FBA9308128AD232B17
:103CE0002083209102012778209302014091020154
:103CF0009C01207C3327B90103E0759567950A95EF
:103D0000E1F79C012370332755E0220F331F5A95AA
:103D1000E1F7262B242B209302012EB1277C2EB90C
:103D20004EB19C012C703327B901660F771F660FC7
:103D3000771F9C0120723327359527953595279558
:103D4000262B242B2EB9A59824B380719927880F90
:103D5000991F822B84BBEAA9FBA990818CAD892392
:103D60008083EAA9FBA9908188AD892B8083E8A98B
:103D7000F9A990818FA9892B80838091020187788E
:103D800080930201409102018F2D99279C01207C94
:103D90003327B90113E0759567951A95E1F79C01F2
:103DA0002370332705E0220F331F0A95E1F7262BF6
:103DB000242B209302012EB1277C2EB94EB19C01F9
:103DC0002C703327B901660F771F660F771F9C0190
:103DD000207233273595279535952795262B242B4B
:103DE0002EB9A59824B380719927880F991F822B2B
:103DF00084BBEAA9FBA990818CAD89238083EAA9C1
:103E0000FBA9908188AD892B8083809102018778FE
:103E10008093020120910201C701807C9927AC01A7
:103E200073E0559547957A95E1F7C7018370992717
:103E3000E5E0880F991FEA95E1F7842B822B8093A8
:103E400002018EB1877C8EB92EB1C7018C70992783
:103E5000AC01440F551F440F551FC70180729927AD
:103E60009595879595958795842B822B8EB9A598E6
:103E700024B380E1E822FF24EE0CFF1CE22AE4BA1E
:103E8000EAA9FBA990818CAD89238083EAA9FBA9CB
:103E9000908188AD892B8083EEA5FFA590818EA9A6
:103EA000892B8083DF91CF911F910F91FF90EF902D
:103EB000DF90CF90BF90AF900895CF92DF92EF92B6
:103EC000FF920F931F93CF93DF936C017A018B01C5
:103ED000C0E0D0E0CE15DF0581F0D8016D918D01F5
:103EE000D601ED91FC910190F081E02DC60119956C
:103EF000892B11F02196EECF7E01C701DF91CF9182
:103F00001F910F91FF90EF90DF90CF90089508954B
:103F100080E090E00895FC01538D448D252F30E022
:103F2000842F90E0821B930B541710F0CF960895C6
:103F300001970895FC01918D828D981761F0828D13
:103F4000DF01A80FB11D5D968C91928D9F5F9F73CD
:103F5000928F90E008958FEF9FEF0895FC01918D6F
:103F6000828D981731F0828DE80FF11D858D90E0DC
:103F700008958FEF9FEF0895FC01918D228D892F79
:103F800090E0805C9F4F821B91098F739927089561
:103F900080EE92E00E94BC1F21E0892B09F420E012
:103FA000822F0895FC01848DDF01A80FB11DA35A53
:103FB000BF4F2C91848D90E001968F739927848F49
:103FC000A689B7892C93A089B1898C91837080646C
:103FD0008C93938D848D981306C00288F389E02D0D
:103FE00080818F7D80830895EF92FF920F931F93BE
:103FF000CF93DF93EC0181E0888F9B8D8C8D98139C
:1040000005C0E889F989808185FD26C0F62E0B8DD3
:1040100010E00F5F1F4F0F731127E02E8C8DE812F9
:104020000CC00FB607FCFACFE889F989808185FFBB
:10403000F5CFCE010E94D21FF1CF8B8DFE01E80F8C
:10404000F11DE35AFF4FF0829FB7F8940B8FEA8976
:10405000FB89808180620AC09FB7F894EE89FF894E
:104060006083E889F98980818370806480839FBF41
:1040700081E090E0DF91CF911F910F91FF90EF9041
:104080000895CF93DF93EC01888D8823C9F0EA89E6
:10409000FB89808185FD05C0A889B9898C9186FD41
:1040A0000FC00FB607FCF5CF808185FFF2CFA8893E
:1040B000B9898C9185FFEDCFCE010E94D21FE7CF49
:1040C000DF91CF91089580E090E0892B21F00E944C
:1040D000C81F811125C080E090E0892B41F080E06D
:1040E00090E0892B21F00E94000081111CC080E02B
:1040F00090E0892B41F080E090E0892B21F00E9434
:104100000000811113C080E090E0892BA1F080E0D5
:1041100090E0892B81F00E94000081110AC008956F
:104120000E940000D8CF0E940000E1CF0E94000052
:10413000EACF0C94000008950895FC0184899589C4
:104140000895FC018289938908950E94773B0F931B
:104150001F93CF93DF93EC0188819981009729F019
:104160002A813B812617370788F48B016F5F7F4FC9
:104170000E94923A009761F0998388831B830A8397
:104180002C813D81232B11F4FC01108281E001C0C0
:1041900080E0DF91CF911F910F9108950C94093A1F
:1041A0000C94093A0F931F93CF93DF938C01EB018B
:1041B00088E2DB011D928A95E9F7F80183819481F9
:1041C0000E94172B81E090E0A0E0B0E08C879D87F3
:1041D000AE87BF87F80185819681A781B085888BDE
:1041E000998BAA8BBB8B8CE090E0A0E0B0E08C8B2D
:1041F0009D8BAE8BBF8BBE01838194810E94442B2B
:10420000D8011396ED91FC91149783898C3069F055
:1042100038F48B30A1F580E090E0A0EAB2E409C068
:104220008531C1F08631B1F02AC080E090E0AEEB7C
:10423000B2E4888F998FAA8FBB8F80E090E0A0EACC
:10424000B1E48C8F9D8FAE8FBF8F80E090E0A0EAAD
:10425000B0E410C080E090E0A8ECB2E4888F998FC1
:10426000AA8FBB8F1C8E1D8E1E8E1F8E8DEC9CEC1C
:10427000ACECBDE388A399A3AAA3BBA30CC0188E82
:10428000198E1A8E1B8E1C8E1D8E1E8E1F8E18A2CE
:1042900019A21AA21BA2DF91CF911F910F9108952D
:1042A0000F931F93CF93DF938C01EB0188E2DB0127
:1042B0001D928A95E9F7F801838194810E94172B5A
:1042C00081E090E0A0E0B0E08C879D87AE87BF875B
:1042D000F80185819681A781B085888B998BAA8BFF
:1042E000BB8B8DE090E0A0E0B0E08C8B9D8BAE8B23
:1042F000BF8BBE01838194810E94442BD801139609
:10430000ED91FC91149783898C30F1F0A0F48B30FF
:1043100009F048C080E090E0A8E4B2E4888F998F6B
:10432000AA8FBB8F1C8E1D8E1E8E1F8E80E090E08C
:10433000A0E0B0E432C08531E1F0863199F580E04B
:1043400090E0AAEFB2E419C080E090E0A0E7B2E408
:10435000888F998FAA8FBB8F80E090E0A0EAB1ECA4
:104360008C8F9D8FAE8FBF8F80E090E0A0E0BFE389
:1043700014C080E090E0A0EAB2E4888F998FAA8F01
:10438000BB8F80E090E0A0E2B2EC8C8F9D8FAE8F6F
:10439000BF8F8DEC9CECACECBDE388A399A3AAA3E2
:1043A000BBA30CC0188E198E1A8E1B8E1C8E1D8EF0
:1043B0001E8E1F8E18A219A21AA21BA2DF91CF91E6
:1043C0001F910F910895CF92DF92EF92FF920F937A
:1043D0001F93CF93DF93EB0124E2FB0111922A9507
:1043E000E9F744E250E060E070E0488359836A8373
:1043F0007B83FC0145815681678170854C835D8399
:104400006E837F834CE050E060E070E0488759871E
:104410006A877B872FB7F8944091E2035091E303BA
:104420006091E4037091E5032FBF488B598B6A8B31
:104430007B8B03811481C8010E944F2C8823B9F122
:10444000F80186818B3098F18D30A0F08551823053
:1044500070F5F8016081718176276727762780E003
:1044600090E00E9423372DEC3CEC4CEC5DE30E9485
:10447000843721C0F801618170E080E090E00E9403
:1044800025372DEC3CEC4CEC5DE30E9484376B014E
:104490007C01F801608170E080E090E00E942537A7
:1044A0009B01AC01C701B6010E94533804C060E013
:1044B00070E080EC9FE76C8B7D8B8E8B9F8B81E017
:1044C000DF91CF911F910F91FF90EF90DF90CF90F0
:1044D00008958F929F92AF92BF92EF92FF921F9397
:1044E000CF93DF93EB0124E2FB0111922A95E9F7C8
:1044F00044E250E060E070E0488359836A837B8344
:10450000FC0145815681678170854C835D836E8394
:104510007F834DE050E060E070E0488759876A870C
:104520007B872FB7F8944091E2035091E3036091A9
:10453000E4037091E5032FBF488B598B6A8B7B8B0B
:10454000E380F480C7010E944F2C882309F46BC0DC
:10455000F70186818C3009F445C018F48B30C9F01E
:1045600062C08551823008F05EC0F7011281612F70
:104570006F7770E0762F66278381682B80E090E06C
:104580000E9423372DEC3CEC4CEC5DE30E94843719
:1045900046C0F701628170E080E090E00E9423371E
:1045A0004B015C01F701138117FF0AC09B01AC01AD
:1045B00060E070E080E89FEB0E9452384B015C01A4
:1045C000612F6F7070E080E090E00E9425372DEC45
:1045D0003CEC4CEC5DE30E948437A50194010E9401
:1045E000533825C0F701128163816F7070E080E05D
:1045F00090E00E9425372DEC3CEC4CEC5DE30E94F2
:1046000084374B015C01612F70E080E090E00E94F4
:1046100023379B01AC01C501B4010E94533817FF39
:1046200006C0905804C060E070E080EC9FE76C8B9F
:104630007D8B8E8B9F8B81E0DF91CF911F91FF90BF
:10464000EF90BF90AF909F908F900895EF92FF9260
:104650000F931F93CF93DF936115710511F480E0E1
:104660001CC041155105C1F07B01EC018C819D817D
:104670008A01080F191FB801CE010E94A7208823C4
:1046800071F3288139818C819D81B701820F931F3D
:104690000E94853B1D830C8381E0DF91CF911F91A8
:1046A0000F91FF90EF900895CF93DF93EC018881F5
:1046B0009981009711F00E94093A198218821D828F
:1046C0001C821B821A82DF91CF910895CF93DF93D2
:1046D000EC016115710561F0FB0101900020E9F723
:1046E0003197AF01461B570B0E942623811103C04F
:1046F000CE010E945423CE01DF91CF910895EF9215
:10470000FF920F931F93CF93DF93EC017B018A01FC
:10471000BA010E94A720811104C0CE010E94542337
:1047200007C01D830C83B701888199810E94853B56
:10473000CE01DF91CF911F910F91FF90EF900895DF
:10474000CF93DF93EC016115710559F0FB010190E6
:104750000020E9F73197AF01461B570B0E947F23DA
:1047600002C00E945423CE01DF91CF910895FB0136
:10477000DC0111961C921E9213961C921E921297A7
:1047800015961C921E9214978617970749F0608120
:1047900071816115710521F0448155810C947F234D
:1047A0000895FC01118210821382128215821482F4
:1047B0006115710551F0FB0101900020E9F7319777
:1047C000AF01461B570B0C947F2308951F920F9245
:1047D0000FB60F9211240BB60F922F933F934F9366
:1047E0005F936F937F938F939F93AF93BF93EF9359
:1047F000FF9380EE92E00E94D21FFF91EF91BF9154
:10480000AF919F918F917F916F915F914F913F9168
:104810002F910F900BBE0F900FBE0F901F90189509
:104820001F920F920FB60F9211240BB60F922F9377
:104830008F939F93EF93FF93E091F002F091F10239
:104840008081E091F602F091F70282FD12C0908122
:104850008091F9028F5F8F732091FA02821751F0D5
:10486000E091F902F0E0E052FD4F958F8093F9025C
:1048700001C08081FF91EF919F918F912F910F90B7
:104880000BBE0F900FBE0F901F90189508950895BE
:104890007F928F929F92AF92BF92CF92DF92EF92D0
:1048A000FF920F931F93CF93DF93EC01490198017F
:1048B0000E9D50010F9DB00C1E9DB00C1124870160
:1048C000040F151F01501109260F371F2150310900
:1048D000E881F9810680F781E02D19951A141B04EF
:1048E0000CF0BBC2EEA5FFA590818AAD8923808321
:1048F000E8A9F9A990818BAD892380838AA19BA126
:104900002091020127782093020160910201292F52
:104910003327A901407C5527FA0153E0F595E79527
:104920005A95E1F7A9014370552775E0440F551FCB
:104930007A95E1F74E2B462B409302014EB1477C0E
:104940004EB96EB1A9014C705527FA01EE0FFF1F49
:10495000EE0FFF1FA90140725527559547955595B4
:1049600047954E2B462B4EB9A59844B3207133275B
:10497000220F331F242B24BBEAA9FBA930812CADC5
:1049800023232083EAA9FBA9308128AD232B208390
:1049900020910201277820930201409102019C019D
:1049A000207C3327B90103E0759567950A95E1F7F7
:1049B0009C012370332755E0220F331F5A95E1F7EE
:1049C000262B242B209302012EB1277C2EB94EB129
:1049D0009C012C703327B901660F771F660F771F74
:1049E0009C01207233273595279535952795262BE1
:1049F000242B2EB9A59824B380719927880F991F6D
:104A0000822B84BBEAA9FBA990818CAD892380838A
:104A1000EAA9FBA9908188AD892B8083E8A9F9A92F
:104A200090818FA9892B8083809101018778809361
:104A300001018DB1877C8DB99D98888D998D892BC9
:104A400009F0BBC0F40132E0E32EF12CACA9BDA902
:104A50009C918DAD89238C9300C000C000C00000E4
:104A600080910001809100018CB18CB182B3ACA91E
:104A7000BDA99C9189AD892B8C93ACA9BDA99C91B2
:104A80008DAD89238C9300C000C000C000008091D0
:104A90000001809100018CB18CB182B3ACA9BDA999
:104AA0009C9189AD892B8C93ACA9BDA99C918DADAE
:104AB00089238C9300C000C000C0000090900001CA
:104AC000009100013CB19CB152B36CA97DA9DB01FE
:104AD0002C9189AD822B8C936CA97DA9DB012C9143
:104AE0008DAD82238C9300C000C000C00000709187
:104AF0000001609100018CB08CB122B3CCA8DDA87C
:104B0000D6011C9149AD412B4C93B1E0EB1AF10851
:104B100009F09CCF9073969596955072452F50E072
:104B200055954795492B3870330F330F342B492D4A
:104B30004076429546954770432B087158E0059F93
:104B400080011124402B50E0542F44278073382FCC
:104B5000369536952072822F90E095958795832B18
:104B6000982D9870990F990F982B872F80768295A2
:104B700086958770892B687198E0699FB001112430
:104B8000862B482B41935193A1E0AA1AB10809F052
:104B90005ACF0C891D89015011092A893B8921505E
:104BA0003109E881F9810680F781E02D40E050E08D
:104BB00060E070E0CE01199541C1ECA9FDA990819A
:104BC0008DAD8923808300C000C000C000008091AB
:104BD0000001809100018CB18CB182B3ECA9FDA9D8
:104BE000908189AD892B808384018CA59DA581301E
:104BF000910509F0A0C0ECA9FDA990818DAD892394
:104C0000808300C000C000C000008090000130918F
:104C100000019CB07CB162B3ECA9FDA9908189AD83
:104C2000892B8083ECA9FDA990818DAD8923808398
:104C300000C000C000C0000040910001F0900001E1
:104C40009CB18CB152B3ACA9BDA9EC9129AD2E2B6E
:104C50002C93ACA9BDA9EC912DAD2E232C9300C0B3
:104C600000C000C00000D0900001A0910001ECB095
:104C70002CB1C2B2ECA9FDA97080B9ADB729B0833F
:104C8000A871E8E0AE9FD0011124FD2DF076F295D9
:104C9000F695F770AF2BEE2DE870EE0FEE0FEA2BC6
:104CA000207326952695A22FAE2B2C2D2072C22E76
:104CB000D12CD594C7942A2F2C29EF2DE871A8E088
:104CC000EA9FF00111244076429546954770E42B07
:104CD000492F4870440F440FE42B482F40734695EA
:104CE00046954E2B5072C52ED12CD594C7944C2985
:104CF0003871B8E03B9FC0011124982D90769295B1
:104D000096959770892B992D9870990F990F982BDC
:104D1000872F807386958695892B607270E07595D4
:104D20006795682BE881F9810190F081E02DCE0133
:104D300019956C017AC0892B09F077C0ECA9FDA9FF
:104D400090818DAD8923808300C000C000C0000029
:104D5000F090000120910001FCB1ECB132B34CA9FC
:104D60005DA9DA019C9189AD892B8C934CA95DA931
:104D7000DA019C918DAD89238C9300C000C000C0E6
:104D8000000060910001607670E04B0185E0959431
:104D900087948A95E1F7409100014871B8E04B9FF4
:104DA000A0011124BA01682979298CB1887090E09A
:104DB000880F991F880F991FAC01462B572B8CB178
:104DC0008073C82ED12CD594C794D594C794C601AE
:104DD000842B952B42B34072C42ED12CD594C7940A
:104DE000C82AD92A4CA95DA9DA019C9189AD892BE1
:104DF0008C932871B8E02B9FC00111249F2D9076D1
:104E0000929596959770892B9F2F9870990F990F6F
:104E1000982B8E2F807386958695892B232F207251
:104E200030E035952795822BD82AF801C192D1928E
:104E30008F01F1E0AF1AB10809F0D7CEEEA5FFA5BA
:104E400090818EA9892B808380910101886780934E
:104E500001018DB188638DB99D9A80E090E0DF916A
:104E6000CF911F910F91FF90EF90DF90CF90BF9067
:104E7000AF909F908F907F9008954C7F38E0439F34
:104E8000C0011124269526952695822B687F962BA6
:104E90000895EF92FF920F93CF93DF93DC0101709F
:104EA0009E96ED91FC919F979081DA968C91DA977E
:104EB00089238083222309F4A0C058968D919C9168
:104EC0005997892BC9F5D096ED91FC91D197908196
:104ED000DB968C91DB978923808380910201877810
:104EE0008093020180910201809302018EB1877C40
:104EF0008EB98EB18EB9A59884B384BBD296ED914C
:104F0000FC91D3979081DC968C91DC9789238083E8
:104F1000D296ED91FC91D3979081D8968C91D897A9
:104F2000892B8083D096ED91FC91D1979081D79673
:104F30008C91D797892B8083D096ED91FC91D19756
:104F40009081DB968C91DB9789238083809102018D
:104F5000877880930201E091020190968D919C9157
:104F600091979C01207C3327F3E036952795FA959D
:104F7000E1F783708295880F807E822B8E2B809341
:104F800002018EB1877C8EB92EB190968D919C9145
:104F90009197382F3C70330F330F80729927969575
:104FA000879596958795832B822B8EB9A59894B378
:104FB00090968C9190978071880F892B84BBD296A4
:104FC000ED91FC91D3979081DC968C91DC978923AD
:104FD0008083D296ED91FC91D3979081D8968C9155
:104FE000D897892B8083D096ED91FC91D1979081B1
:104FF000D7968C91D797892B80837A01EB011E1469
:105000001F040CF0ABC0002321F0FE0185919491A8
:1050100002C08881998120910201277820930201A2
:1050200060910201292F3327A901407C5527FA01FD
:1050300043E0F595E7954A95E1F7A90143705527B7
:1050400075E0440F551F7A95E1F74E2B462B4093A0
:1050500002014EB1477C4EB96EB1A9014C70552783
:10506000FA01EE0FFF1FEE0FFF1FA9014072552737
:1050700055954795559547954E2B462B4EB9A59876
:1050800044B320713327220F331F242B24BBD29625
:10509000ED91FC91D3973081DC962C91DC97232302
:1050A0002083D296ED91FC91D3973081D8962C91A4
:1050B000D897232B20832091020127782093020187
:1050C000409102019C01207C3327B901F3E07595E2
:1050D0006795FA95E1F79C012370332755E0220F7D
:1050E000331F5A95E1F7262B242B209302012EB172
:1050F000277C2EB94EB19C012C703327B901660F65
:10510000771F660F771F9C012072332735952795EF
:1051100035952795262B242B2EB9A59824B380717D
:105120009927880F991F822B84BBD296ED91FC9111
:10513000D3979081DC968C91DC9789238083D296DB
:10514000ED91FC91D3979081D8968C91D897892B2B
:10515000808381E0E81AF108229651CF9E96ED9166
:10516000FC919F979081D6968C91892B8083DF91BB
:10517000CF910F91FF90EF9008952F923F924F9211
:105180005F926F927F928F929F92AF92BF92CF92D7
:10519000DF92EF92FF920F931F93CF93DF93CDB7E0
:1051A000DEB72E970FB6F894DEBF0FBECDBFFC0161
:1051B000208181811092800310927F03709382037B
:1051C000609381032A838B83EA81FB819191FB8326
:1051D000EA83892F992309F4D5C09A30A1F420914C
:1051E00089038091810390918203F8E02F9F800DC5
:1051F000911D112490938203809381031092800368
:1052000010927F03E1CF9D30F9F220917F0330911E
:1052100080033A87298720918F0330919003498535
:105220005A854217530784F02091890380917F03A8
:105230009091800356E0259F800D911D112490933D
:10524000800380937F03C0CF20908103309082033E
:105250002091910330919203221633062CF740904F
:105260008903C42CD12C29853A8596E0499E200DCE
:10527000311D112412161306BCF6960193E0220F7D
:10528000331F9A95E1F7220D331D1216130664F6AB
:10529000803B08F08F5FE0918A03E88720918503C7
:1052A000309186033D832C83409183035091840386
:1052B0005F834E8355E0859FC0011124E985FA85FF
:1052C000FE87ED873F0119829C012E1B3F0B3A8719
:1052D0002987A101485F5F4F5C874B875981553013
:1052E00041F0E985FA85E60DF71DE95FFA4F549024
:1052F00001C0512C4101510150FE09C081E048120A
:1053000003C02E813F8111C0EE80FF8017C0EC8169
:10531000FD812E813F81E217F307C9F038853111F5
:1053200016C041E0441208C09F01A501B3018DE7FA
:1053300093E00E94E91D0BC0EC80FD808601960180
:10534000A4016D857E858DE793E00E94671A5694CF
:105350005FEFA51AB50A8C0C9D1C8B859C858A1560
:105360009B0551F699819F5F9983EFEF6E1A7E0A34
:105370002D853E852C0D3D1D3E872D87963009F0ED
:10538000ADCF52CF2E960FB6F894DEBF0FBECDBF75
:10539000DF91CF911F910F91FF90EF90DF90CF9011
:1053A000BF90AF909F908F907F906F905F904F9045
:1053B0003F902F900895E091AB03F091AC03908162
:1053C0008091B303892B8083E091B103F091B20304
:1053D00090818091B603892B8083E091AF03F09197
:1053E000B00390818091B503892B80838091BB03AA
:1053F000882371F060E00E945B2B62E070E080E047
:1054000090E00E94152C61E08091BB030E945B2B11
:10541000E091AB03F091AC0390818091B7038923B5
:105420008083E091AD03F091AE0390818091B80349
:105430008923808380910201877880930201809183
:105440000201809302018EB1877C8EB98EB18EB934
:10545000A59884B384BBE091AF03F091B003908131
:105460008091B90389238083E091AF03F091B00369
:1054700090818091B503892B808383E0E091AF0315
:10548000F091B00320819091B90392239083E09131
:10549000AF03F091B00320819091B503922B9083DC
:1054A000815061F7E091AB03F091AC039081809162
:1054B000B303892B80830895CF92DF92EF92FF92FE
:1054C0001F93CF93DF93EC011F81662311F0912F7F
:1054D00001C090E0288530E0220F331F285F344F51
:1054E000A0E0B0E0F90145915491FA018081812357
:1054F000AD0160E070E089130FC01196CD84DE84A9
:10550000EF84F8884C155D056E057F0558F33FEF75
:105510002FEF8FEF9FEF03C03A2F252FCB01632F83
:10552000722FDF91CF911F91FF90EF90DF90CF907E
:1055300008953FB7F8948091E7039091E803A09114
:10554000E903B091EA0326B5A89B05C02F3F19F0E7
:105550000196A11DB11D3FBFBA2FA92F982F8827F3
:10556000820F911DA11DB11DBC01CD0142E0660F4E
:10557000771F881F991F4A95D1F708950F931F939E
:10558000CF93DF93CDB7DEB7A2970FB6F894DEBF07
:105590000FBECDBF8C01CB01BA01F8011182108280
:1055A00013821282158214822AE0AE014F5F5F4F90
:1055B0000E94C836BE016F5F7F4FC8010E94A023C2
:1055C000A2960FB6F894DEBF0FBECDBFDF91CF918C
:1055D0001F910F9108950F931F93CF93DF93CDB732
:1055E000DEB762970FB6F894DEBF0FBECDBF8C0159
:1055F000CB01F8011182108213821282158214826B
:105600004AE0BE016F5F7F4F0E94BD36BE016F5FF3
:105610007F4FC8010E94A02362960FB6F894DEBFA8
:105620000FBECDBFDF91CF911F910F910895CF9302
:10563000DF93EB01FC0183898C3089F038F48B30E7
:10564000C1F44BE050E069EB72E017C0853161F0C6
:10565000863179F44BE050E06BEC72E00EC04BE029
:1056600050E06FEB72E009C04BE050E065EC72E097
:1056700004C04BE050E061ED72E0CE010E948C3B33
:105680001B86DF91CF910895FB01DC0153968C912D
:105690008C3041F038F48B3029F480E492E4AFE0B0
:1056A000B0E004C080E894E8AEE1B0E084A395A344
:1056B000A6A3B7A30895362F90E0FC01EE53F54F53
:1056C0004491FC01EE59F54F2491FC01E45EF54F45
:1056D0009491992309F46CC0442309F455C050E017
:1056E000FA013197E231F10508F04EC08827EE58F3
:1056F000FF4F8F4F0C944A38809180008F7707C0FE
:10570000809180008F7D03C080918000877F80938F
:1057100080003AC084B58F7702C084B58F7D84BD88
:1057200033C08091B0008F7703C08091B0008F7D2F
:105730008093B00029C0809190008F7707C080913E
:1057400090008F7D03C080919000877F80939000B0
:105750001BC08091A0008F7707C08091A0008F7D33
:1057600003C08091A000877F8093A0000DC080912E
:1057700020018F7707C0809120018F7D03C0809129
:105780002001877F80932001E92FF0E0EE0FFF1FBB
:10579000EE5FF54FA591B4919FB7F894311104C015
:1057A0008C912095282302C0EC912E2B2C939FBF27
:1057B0000895CF93DF9390E0FC01EE59F54F2491CB
:1057C000FC01E45EF54F8491882361F190E0880F3D
:1057D000991FFC01E855F54FC591D491FC01EE5F8E
:1057E000F54FA591B491611109C09FB7F8948881D4
:1057F000209582238883EC912E230BC0623061F4C4
:105800009FB7F8948881322F309583238883EC9159
:105810002E2B2C939FBF06C08FB7F894E8812E2BB8
:1058200028838FBFDF91CF9108958F929F92AF927F
:10583000BF92CF92DF92EF92FF926B017C010E94A8
:10584000992A4B015C01C114D104E104F104F1F087
:105850000E94992ADC01CB0188199909AA09BB0980
:10586000883E9340A105B10570F321E0C21AD1082A
:10587000E108F10888EE880E83E0981EA11CB11C97
:10588000C114D104E104F10419F7DDCFFF90EF90CA
:10589000DF90CF90BF90AF909F908F9008958F92A0
:1058A0009F92AF92BF92CF92DF92EF92FF920F93AF
:1058B0001F93CF93DF93CDB7DEB7C054D1400FB65F
:1058C000F894DEBF0FBECDBF2FB7F8944091E2032E
:1058D0005091E3036091E4037091E5032FBFFC0155
:1058E00001851285238534856A017B01C01AD10A9E
:1058F000E20AF30AE0EDCE16E7E0DE06E104F10489
:1059000018F4FC018189C2C08C01FC0141875287D7
:10591000638774871482138212821182108262E07C
:1059200085810E94D92B61E070E080E090E00E94C8
:10593000152C61E0F80185810E94D92B60E0F80107
:1059400085810E945B2BF80186818551823028F485
:105950008BE291E10197F1F706C064E170E080E02D
:1059600090E00E94152C62E0F80185810E94D92BFD
:10597000F801828990E08230910538F0880F991FF4
:10598000880F991F05970197F1F7F89460E0C80117
:105990000E945C2A6F3F7F4F8F4F9F4F21F4F80189
:1059A000118A789444C061E0C8010E945C2A6F3F6C
:1059B0007F4F8F4F9F4F99F3CE0101967C015E017F
:1059C0009FEBA91A9EEFB90A670160E0C8010E9427
:1059D0005C2AF601608371838283938361E0C8014E
:1059E0000E945C2AF6016483758386839783F8E0BE
:1059F000CF0ED11CCA14DB0441F7789420E030E0CC
:105A0000F70180809180A280B380448155816681B6
:105A10007781FFEF8F169F06AF06BF0631F04F3F2D
:105A20008FEF58076807780721F4F801118A80E0A2
:105A30002DC0F90183E0F595E7958A95E1F7E00F30
:105A4000F11F8081880F84169506A606B70608F414
:105A5000816080832F5F3F4FF8E0EF0EF11C28320A
:105A6000310571F6F801248130E04081818190E0B8
:105A7000840F911D4281840F911D4381840F911DDC
:105A800099272817390789F681E0818BC05CDE4FA2
:105A90000FB6F894DEBF0FBECDBFDF91CF911F913F
:105AA0000F91FF90EF90DF90CF90BF90AF909F90BD
:105AB0008F9008951F920F920FB60F9211242F937B
:105AC0003F938F939F93AF93BF938091E203909105
:105AD000E303A091E403B091E5033091E60323E0F2
